:040000006F108023DA
:1000040000000000000000009E080000A20800009C
:100014000000000036120000000000000000000094
:10002400361200003612000000000000000000003C
:10003400361200000000000036120000000000002C
:1000440036120000361200003612000000000000D4
:10005400361200003612000036120000361200007C
:10006400361200003612000036120000361200006C
:10007400361200003612000036120000361200005C
:10008400361200003612000036120000361200004C
:10009400361200003612000036120000361200003C
:1000A400361200003612000036120000361200002C
:1000B40036120000140C0000361200003612000044
:1000C400361200003612000036120000361200000C
:1000D4003612000036120000361200000000000044
:1000E400000000000000000000000000000000000C
:0C00F40000000000000000000000000000
:10010000397101436EC619A0397141536AC866CA74
:1001100062CC5ECE19A0397101535AD056D252D456
:100120004ED64AD826DA22DC06DE330161408282CE
:1001300041114AC026C222C406C68282B24D410184
:10014000024D924C224CB24B4101024B924A224A40
:10015000B2494101024992442244B24041018280A5
:100160003D432A876373C3029377F700BDEFADE584
:10017000937606FF3D8ABA960CC34CC30CC74CC796
:100180004107E36BD7FE11E28280B306C3408A06C3
:100190009702000096966780A6002307B700A30683
:1001A000B7002306B700A305B7002305B700A304D3
:1001B000B7002304B700A303B7002303B700A302CB
:1001C000B7002302B700A301B7002301B700A300C3
:1001D000B7002300B700828093F5F50F9396850052
:1001E000D58D93960501D58D61B79396270097021B
:1001F000000096968682E78086FA9680C1171D8F4A
:100200003E96E374C3F8A5B7EFF29FF2B757000824
:10021000636AF500B7F700081307F51F9387F77FA8
:1002200063FAE700AA8537350000130585A6EF10AD
:1002300020680DB722052181370400082E89498CDA
:100240009304800873B00480EF1060072285EF10DC
:10025000C009CA85130600102285EF10600C130434
:1002600004102285EF106008130600109305091092
:100270002285EF10E00AEF10600673A0048055BFDE
:1002800013873185182393873185058B09CF37373D
:1002900002408356A74293E636002315D74298239F
:1002A0001377E70F98A39823098B09CF37370240BC
:1002B0008356E74293E636002317D74298231377F5
:1002C000D70F98A38280138701A8143B938781835B
:1002D000E20694C3342B9043C206B29694C3343BD7
:1002E0009043A206B29694C39043542BB29694C303
:1002F000742B93870184A20694C39443783B36976A
:1003000098C39843260798C3239E0182A38801843B
:1003100023880184238401848280EFF27FE103C675
:1003200001A81307500593863185631BE630938738
:1003300001A89033130730056314E630B023130788
:100340002004631FE62EB03313073004631AE62E31
:10035000D0231387418410A3D033AC3710B3F023DC
:10036000E20530A3F03330B3138601840CC2AC270E
:10037000084213870184C205AA950CC28C37084233
:10038000A205AA950CC208428C27AA950CC210425D
:1003900009CA0386C700635C060490221366160030
:1003A00090A29022930530021366460090A2F03787
:1003B0006302B61063EBC508C9456308B60C63EC6D
:1003C000C502138511859385018513878184630494
:1003D00006240D48630806211547A388E184130706
:1003E00000022388E18405472384E184A9A49022A4
:1003F0001366260075B7ED456307B60AF945630431
:10040000B60AE945E31AB6FC83C62185858A63806E
:1004100006161043B14663F3C60014C30D66814649
:100420001306C6A80C4363EAB6121387C1841443AB
:10043000E182D4A31443C182D4B314431843A182EC
:10044000F4A3F8B323AAF1842DA09305A002630CB2
:10045000B60063E1C502930550026305B60A93072F
:100460008002E31BF6F683C72185858B6381071025
:10047000993DCDB19305F0026307B6029305A0053F
:100480006303B6109307E002E9BF144393074002E9
:1004900063F3D7001CC3B7070020938707002380AE
:1004A000070023AAF184A38801842388018423847C
:1004B0000184C1B783C62185858AD5CA1043B14658
:1004C00063F3C60014C30D668146130686A90C4368
:1004D00063E0B6021387C1841443E182D4A31443BA
:1004E000C182D4B314431843A182F4A3F8B355BF17
:1004F0003305D6000821B385D700850688A193F679
:10050000F60FF1B783C62185858AB5C21043A1468F
:1005100063F3C60014C381461386C1810C4363E4B0
:10052000B6021387C1841443FD16E18294A31443D9
:10053000FD16C18294B314431843FD16A1827D17A2
:10054000B4A3B8B3B9BF3305D6000821B385D7002B
:10055000850688A193F6F60FD1B73305D60008219A
:10056000B385D700850688A193F6F60F65BD0947C8
:10057000A388E1841307A0032388E184054723842B
:10058000E184FD39FDB5903B9306F0036316D60474
:100590001043C14663F3C60014C30D6681461306BB
:1005A000C6A70C4363E0B6021387C1841443E182FB
:1005B00094A71443C18294B714431843A182B4A7EB
:1005C000B8B749B53305D6000821B385D7008506ED
:1005D00088A193F6F60FF1B71547A388E1841307B6
:1005E000000259BF9306000796A31421A3810700B8
:1005F00023A40700B4A3B706000AD4C39421A3869A
:10060000070023970700D4A72398070023AAF184A3
:1006100023000700B9BD83C72185858B91C72300BF
:10062000050023800500EDB789471CA19307A003AF
:100630009CA185471CA39C2293E717009CA291B71D
:100640001547A388E184130700022388E184094742
:100650002384E1849C2293E717009CA29C2293E7C9
:100660002700E9BFEFF2DFAC370700201307870947
:10067000938701841623904363F1C6021223162345
:10068000984342064182158F98C383A5418542064F
:10069000854641820945C52975BC904323A00700C2
:1006A0009387318598231377E70F98A3F9BFEFF26B
:1006B0003FA837574253A3890184130757359387BF
:1006C00001A898C313874184142323A40700354647
:1006D000D4A31433938501A80945D4B33423383304
:1006E000F4A3F8B303C781848546D8A769299DB4CC
:1006F000EFF21FA4B7040020938484091384C183FC
:10070000138981838327090096200E203707040070
:1007100013078702B385D502BA979220A6078546AC
:100720000945BE958D211E208507C207C1831EA0E5
:10073000938601849220984293870184118F98C2F6
:1007400016209220130700203347C7026319D700F1
:10075000231004000327090005072320E9009C4318
:1007600099E79387318598231377E70F98A3DDB234
:10077000EFF21F9C938731859823058B19CB03C714
:10078000F1A8930780026314F7009D37E1B2D93DC9
:10079000F5BF9C23918BFDDB193FCDBFEFF2BF97D7
:1007A0009387C1839E23AA851384C183C207C18313
:1007B00099E383A78183B7040020938484090A20E6
:1007C0009E2092203385A702138701881389018414
:1007D0003A95EF10C0021E208507C207C1831EA0F4
:1007E0009A2083270900998F2320F9001A20962048
:1007F00093070020B3C7D702639DE70293878183E5
:100800009C433755000893850188A6073E95ED3A2D
:10081000832709009384818381EB93873185982313
:100820001377D70F98A36135231004009C408507E8
:100830009CC06FF09F91EFF2BF8F938731859C230F
:10084000898B81C7A13F6FF0FF90FD47E39DF5FEC7
:100850002A88138431858147938401A87D47B30694
:10086000F8009022B386F400850790A2E399E7FE92
:100870006D341C20898BE1FB1C20858B91CBF834D7
:10088000930780026314F700A53575BFE13B65BF90
:1008900083C7818493F7F70FDDF7113D6DB77300C0
:1008A000203001A0EFF2DF8885450545EF00705349
:1008B00085450565EF0010516FF0DF89B7370240BD
:1008C000130740F8A386E740138701B223A8E74047
:1008D000138701AA23ACE740138701AE23AEE7409C
:1008E00009472391E7422397E742239407429387DE
:1008F000C18523800700A380070023810700A3810F
:10090000070023820700A382070023830700A38335
:1009100007008280EFF2DF8141118545414502C227
:1009200002C402C6EF00F04BC1673EC24C009147C3
:10093000371501403EC6EF00302EB70702003EC219
:100940004C0093078004371501403EC6EF00D02CC1
:1009500041016FF03F80EFF2AFFD370701401C4FC0
:1009600093F707F3A1E593E787081CCF39C1B734A4
:1009700002404D3723800440913793079002A381B2
:1009800004402380F440FD572383F440930710F87C
:10099000A380F4409D472381F4400967B7E700E056
:1009A0001384044023A2E7106FF0CFFA93E7C70C3B
:1009B0006DBF9947373402402300F4402945EF00CA
:1009C0003052B7E700E023000440096723A2E7188C
:1009D000E1BF9D4763EBA7028D67938747AA0A058E
:1009E0003E951841B7370240938707400287C84BAE
:1009F0008280884F8280C84F8280884B8280E84BFB
:100A00008280A84F8280E84F8280014582807D15D8
:100A1000994763E0A7048D67938747AC0A053E9525
:100A20001841B7370240938707400287C8271181D2
:100A30008280C8373D898280C837D5BFC827DDBFCF
:100A4000E8270A0531898280E827EDBFE827098178
:100A5000D5BF014582809D4763EBA7048D679387CF
:100A600007AE0A053E951C418287B737024023A88E
:100A7000B7408280B737024023AAB7408280B73799
:100A8000024023ACB7408280B737024023AEB74064
:100A90008280B737024023AAB7448280B73702402A
:100AA00023ACB7448280B737024023AEB74482807C
:100AB0009D4763E1A7048D67938707B00A053E95BC
:100AC0001841C205B7370240C181938707400287AA
:100AD0008EB38280CEB382808EB78280CEB7828082
:100AE0008EBB82802392B70682802394B7068280D1
:100AF0002396B70682809D4763E1A7048D6793879D
:100B000007B20A053E951841C205B7370240C181B8
:100B1000938707400287AEB38280EEB38280AEB780
:100B20008280EEB78280AEBB82802393B70682803C
:100B30002395B70682802397B70682809D4763E29C
:100B4000A7048D67938707B40A053E951841B73708
:100B50000240938707400287AA3342054181828081
:100B6000EA33E5BFAA37D5BFEA37C5BFAA3BF5B719
:100B700003D56706DDB703D5A706C5B703D5E706D6
:100B8000E9BF014582809307F5FF93F7F70F1947F7
:100B9000636FF706EFF22FD81387C1852A971823C2
:100BA000138AC1852A841377F70F854729EBB68905
:100BB000B2842E89A93D13774500814729C3218935
:100BC00011C9228539352686CA8513050504EF002B
:100BD000104301A86398090293150901C181228578
:100BE0009D3DB3078A000547A685228598A3C93590
:100BF0002285A9379375C5FF2285F53D81473E853E
:100C00006FF0AFD42285F1332686CA85C9B78547F0
:100C10003E858280011122CE3734024026CC4ACA5A
:100C20004EC852C656C41304044078207C30137753
:100C3000F70F93762700638E064E93F7F70F13F79F
:100C4000070393080002630A170593060003630075
:100C5000D71621EF13F7F703630807128D466316C3
:100C6000D70493F70704B1C30C447E34C20593C77D
:100C700007087EB47E34C181138501AEC207C183EB
:100C8000CD9B93E787007EB47D367E34C207C18357
:100C9000CD9BC207C1837EB409A893F7F70363868F
:100CA000E70213072002638FE70AB73702400947BC
:100CB0002383E740938707407244E2445249C24984
:100CC000324AA24A056173002030938781869E23B1
:100CD00093848186C207C18381E7930700083EB0F1
:100CE00083C7A18693F70706E9F383C741861547B3
:100CF00093F7F70F638CE7041947E398E7FA9E2010
:100D00001307F003130400046365F7008220420414
:100D1000418013890187832909002286CE851385A6
:100D200001B2EF00D02D9E20A29923203901818F9E
:100D3000C207C1839EA0B73702402390874203D7E2
:100D40002742134707042391E74285B7373702400C
:100D50008347374083C6818593F70708D58FA30162
:100D6000F740A1B73E3493C707043EB43E34C207F0
:100D7000C183F19B93E727003EB49387C18523810C
:100D80000700EFF0FF9E15B7184493F70704E38EB2
:100D900007F083C7A18683D78186C207C183E39604
:100DA00007F023100402930700043EB0FDBD930733
:100DB00020041CD0930780081CD0138701B21C2389
:100DC0009385A1869CA11C337623138641861CA2A1
:100DD000035827009387818696A39386C186035381
:100DE000470023900601138861862310680003C81A
:100DF0000500138481861389A186137808069385DC
:100E000001B29387C18693866186630D0806834786
:100E1000090093F707066398170F1C229306E00F4B
:100E20006392F6042300070023A8E18683470900A4
:100E30001A20E207E18763DE072C9307000463E5CD
:100E4000E7001E20C207C1831A201D8F420741837D
:100E50001AA0373702402310F742930700042311EA
:100E6000F742A1B51C221307F00F631EF708A388F1
:100E700001842388018423840184A389018423A01D
:100E800001846DB718222D461377F70F636DE606C0
:100E90000D660A07130606B63297184302879A238F
:100EA00089462183938901876308D7060D4663012C
:100EB000C70885476319F7088D67138747BF83C73E
:100EC00047BF23A0E90081441A2063F3E7001EA076
:100ED0001E201307F003130A00046367F700035A88
:100EE0000400420A135A0A0183AA09005286138594
:100EF00001B2D685569AEF00901023A049019307BE
:100F0000F00FE395F4F213073004B7370240239152
:100F1000E7421307C00805BD0D67130747BD3C3303
:100F200023A0E9003823A207BA97C207C18361BF93
:100F30009E23054693F7F70F6382C70289CB638729
:100F4000D702638DE70281479304F00FB5BF138783
:100F5000418223A0E90083C74182B5B78D6713871B
:100F600087C023A0E90083C787C0B1BF8D671387FF
:100F700087C123A0E90083C787C1B1B78D671387F5
:100F800007C323A0E90083C707C335BF9E2393F798
:100F9000F70F238CF18459BD83C791859CA11A203A
:100FA0008547E3F5E7E81EA051B59E2393F7F70FB9
:100FB000A38CF1840547238DE1848DBD034709008F
:100FC0007D8B11EF9E23054793F7F70FE390E7E63C
:100FD0009387B18598231377E70F98A381BD0347C3
:100FE000090009467D8BE310C7F29E2393F7F70FA4
:100FF000E39B07F09622B73702400D4693F6F60FB3
:1010000093870740638FC60013062008E39DC6EE52
:1010100098D783C73185918BE38A07E0EFF02FE9FA
:1010200031B523970702F5B7034709007D8B05E724
:101030009E23054793F7F70FE397E7EC8D6783C788
:10104000B7BD93F70702E38007EC9387B185982338
:101050001367170059B70347090009467D8BE3144E
:10106000C7EA9E2393F7F70FE39F07E89A22B73763
:1010700002408D461377F70F93870740630BD70025
:1010800093062008E311D7E8BA3713673700BAB7D9
:1010900071BBFA371367C700FAB749BB2380050055
:1010A000FDBD8347090023900500FD8B91EF83C7A9
:1010B000B1858144858B99C389479CA11A208947B2
:1010C000E3FFE7E21EA025BD83470900094793041B
:1010D000F00FFD8BE394E7FE9A22B73702408D466E
:1010E0001377F70F93870740630FD7001306200885
:1010F000E316C7FCBE3781448D8BE391D7FC85474F
:101100009CA1814465BFFE373147B18BE39BE7FE6D
:10111000FDB74207B737024041839387074019E77D
:101120002390070213070004BAB341B6130700085F
:10113000E5BF9377170085C3A38C0184238C0184BA
:10114000A38D0184238D0184A3010400EFF00FF728
:1011500085477CA095B6937747008DC791477CA0C3
:101160002945BD2B58309387B185118B19C798231A
:101170001367270098A39C2381B698231377D70F72
:1011800098A31DBE78A00DBEEFE29FFA2D237165D6
:1011900013050520652BB707002083A5C709373540
:1011A0000000130505B929272945B5233735000067
:1011B000130505BAEF0010011307400523A8E182CB
:1011C00093060020239AD18203A7018323A6E184FA
:1011D00083C7218593E717002389F184EFF08FEC13
:1011E00085450545EFF02FF7B7E700E0096723A233
:1011F000E71001A0B71702409843B70600F993869D
:10120000F6F51367170098C3D84313670705D8C3CB
:10121000D843758FD8C3372702401443F19A14C3BB
:10122000144393E6260014C3D8431377F7F0D8C3CA
:10123000D843D8C3828001A097F1FF1F9381016634
:1012400017410020130101DC172500001305C5A973
:1012500097F5FF1F938505DB1386018363FAC500AD
:101260008322050023A0550011059105E3EAC5FE80
:1012700013850183938541B66377B500232005006C
:101280001105E36DB5FEFD42739002BC8D42739073
:1012900042809302800873A0023097F2FFFF93828E
:1012A000A2D693E2320073905230EFF0BFF497026F
:1012B00000009382A2ED7390123473002030B706C1
:1012C0006745B7270240938636123797EFCDD4C3D0
:1012D0001307B79AD8C3D4D3D8D382803727024014
:1012E0001C4BA166D58F1CCB8280B7270240984B40
:1012F00081769386F6FD758F98CB984BB7060200E2
:10130000558F98CBC8CB984B1367070498CBD84719
:10131000058B75FF984B8176FD16758F98CB828073
:10132000370700F8BD672A979387F77F63E3E70ED7
:1013300037070108B306C500130707809307D00FCE
:101340006365D70C3367C5001377F70F9307E00F7A
:101350004DEF45CEB7066745B72702409386361254
:101360003797EFCDD4C31307B79AD8C3D4D3D8D304
:10137000984B81769386F6FD758FC176218298CB46
:10138000898DC16837030800370E0400930E0010E2
:10139000FD16984B338FA5003367170198CB984BF8
:1013A0003367670098CBD847058B75FF3308EF008C
:1013B000832F08003308E5002320F80103A8070164
:1013C0003368C80123A8070103A8C70013781800D1
:1013D000E31C08FE1107E31BD7FDC8CB984B13088D
:1013E00005101367070498CBD847058B75FF984BFA
:1013F0007D16758F98CB01EE984BA166558F98CBD3
:10140000984B1367070898CB91473E8582804285A9
:1014100049B79307F00FD5BF984593770701137825
:10142000F70081C7DC413368F8009441814713F627
:10143000F60F39C21C410146854E3D4F930F800285
:1014400093028004214EB398CE00B3F51601639148
:10145000B80213132600B3156F0093C5F5FFED8F87
:1014600033136800B367F3006317F70D232A1501E0
:101470000506E31AC6FD1CC14166130606F0758E0B
:101480003DC23716014093050680631BB50A83A74A
:101490008180A145854E3D4F930F800293028004C9
:1014A000414E3393BE0033F666006312C3021396B7
:1014B00025000116B318CF0093C8F8FFB3F7F80062
:1014C0003316C800D18F6319F709232A65008505F3
:1014D000E399C5FD371601405CC193050680631290
:1014E000B50823A4F180C16763E6F604504D814737
:1014F000054E3D4F930F800293028004A14E9385C9
:101500000701B315BE00B3F8B600639115039398B5
:10151000270033131F011343F3FF3376C300B318BF
:10152000180133E6C800631AF7054CC98507E3982C
:10153000D7FD50CD8280E31D57F2232815010DBF42
:10154000930506C06315B50083A7C18099B7E31260
:10155000C5F483A7018135BFE31B57F62328650037
:10156000BDB7930506C06315B50023A6F180A5BFDE
:10157000E31BC5F623A8F180BDB7E31957FAB315ED
:10158000FE000CD165B7B777DC02938707C01CC19A
:1015900037160240584211839376F7003707002030
:1015A0001307470236971423504293F6F60F13762B
:1015B000060833D7D70019E233D7D70258C118C568
:1015C00058C5828099C5371702405C4B5D8D48CB6A
:1015D0008280B7170240D84B1345F5FF798DC8CBF1
:1015E000828099C5371702401C4F5D8D08CF8280DD
:1015F000B7170240984F1345F5FF798D88CF828049
:10160000EFE21FB31629F577FD17F58FF621DA25DE
:101610000111D58F1EA95625FD779387379FF58F2A
:10162000D6212A842EC6D58F9625D58FB625D58F5F
:101630005EA55E29C207C18393F7F7CFD98F5EA954
:1016400008089137B747014093870780B245631E6A
:10165000F402F2476547B387E702984193064006D4
:101660000A07B3D7E70233D7D702B3F7D702120777
:10167000920793872703B3D7D702BD8BD98FC207B1
:10168000C1831EA405616FE0FFACE247E1B791C5DD
:101690005E250967D98F5EA582805A25F977FD17E7
:1016A000F98FD5BF93F5F51F4EA182800A216D8D6C
:1016B0003335A0008280B707002083A7C7093717FA
:1016C0007A0013070720B3D7E70293F7F70F238BAE
:1016D000F1861307803EB387E702239AF186828062
:1016E000B7F700E0D8438146799BD8C303C7618729
:1016F0003306A70290CBD4CB98431367070198C356
:1017000098431367170298C3D843058B75DF984336
:10171000799B98C38280B7F700E0D8438146799BD4
:10172000D8C303D741873306A70290CBD4CB9843C5
:101730001367070198C398431367170298C3D843E8
:10174000058B75DF9843799B98C38280EFE25F9E9B
:101750002A841165011185452105613593070040F3
:101760003EC23715014085473EC44C00E147130592
:1017700005C03EC6553122C837440140B7070800AE
:101780000C08130504803ECC02CA231E01008D3DC7
:10179000854513050480E53D05616FE0BF9BEFE2E1
:1017A0009F97B7440140AE893289014493840480F5
:1017B000634524014A856FE05F99930500042685FF
:1017C000F53565DDB3878900838507002685050427
:1017D000C205C181C13DE9BF138741811C43938686
:1017E00041B63E95636BD500B756002093860680C0
:1017F00063E5A60008C33E858280FD57EDBFB3C7F1
:10180000A5008D8B3307C50081E78D4763EDC700C9
:10181000AA87637EE508942185078505A38FD7FEF7
:10182000E3EBE7FE828093763500AA8789CA94218C
:1018300085078505A38FD7FE93F63700C5BF93763E
:10184000C7FF138606FE63F0C70683A3050083A2C5
:10185000450083AF850003AFC50083AE050103AE2D
:10186000450103A3850183A8C5019385450223A0F3
:10187000770003A8C5FF23A2570023A4F70123A6DE
:10188000E70123A8D70123AAC70123AC670023AE31
:1018900017019387470223AE07FF75B79041910761
:1018A000910523AEC7FEE3EBD7FEE3E6E7F68280C1
:1018B00039713EDA2ED232D436D63AD842DC46DE00
:1018C0009387818122CC804326CA06CEAA8409C48C
:1018D0001C4C99E32285ED290C4454102686228560
:1018E00036C6EF007012F2406244D2442161828019
:1018F000011126CA4AC806CE22CC4EC652C4AA84BA
:101900002E8901C51C4D91E3E1219C4C804499E353
:1019100026857D299717000093874735631BF402BE
:10192000C0405E24A18BB1C71C48A1C7FD59294AFC
:101930001C4483450900FD17B1E91CC463DD07069B
:101940002286A94526856120FD576308F5022945B1
:1019500035A097170000938767336314F400804421
:10196000C9B7971700009387672EE31CF4FAC044A9
:101970004DBFA2852685112A55D97D55F240624476
:10198000D2444249B249224A056182801CC40509F9
:1019900063D70700184C63CAE700638845011C4001
:1019A0001387170018C08CA361B7228626850520EF
:1019B000E31035F9D9B71C401387170018C0294721
:1019C00098A371B793878181AA85884315B70111C0
:1019D00022CC26CA4AC806CE4EC6AA842E89328494
:1019E00001C51C4D91E3ED2697170000938707284A
:1019F0006317F406C0401C4C1CC45E24A18BC1C3F9
:101A00001C48B5CF1C4808409379F90F1379F90F9A
:101A10001D8D5C486346F500A2852685692C25E569
:101A20001C440505FD171CC41C401387170018C073
:101A3000238037015C486388A7005E24858B81CBB7
:101A4000A9476316F900A2852685B5240DEDF2405D
:101A500062444A85D2444249B2490561828097175F
:101A600000009387A7226314F400804469B7971796
:101A700000009387A71DE310F4F8C044ADBFA28512
:101A80002685212041D17D59D9B741119387818184
:101A900026C2844322C44AC006C62A892E8489C429
:101AA0009C4C99E326852D26971700009387071CE9
:101AB000631BF402C0400317C40093170701C183DE
:101AC00093F68700ADEA93F6070195EEA54723202C
:101AD000F900136707045AA47D55B240224492448A
:101AE000024941018280971700009387271A6314E7
:101AF000F4008044C9B79717000093872715E31CAB
:101B0000F4FAC0444DBF918B9DC34C5889C99307CB
:101B100044046384F5004A853123232A04025E24A9
:101B20002322040093F7B7FD5EA41C481CC05E246A
:101B300093E787005EA41C4899EB5E2413070020FE
:101B400093F707286385E700A2854A85A1215E24D3
:101B500013F717001DC35C4823240400B307F040AB
:101B60001CCC1C480145B5FB8317C40013F70708BC
:101B70002DD793E707045EA485B7898B014791E3CE
:101B8000584818C4F9BFDE25011122CC26CA06CE5A
:101B90004AC84EC613F78700AA842E8479EBD84131
:101BA000634DE000B841634AE0000145F240624401
:101BB000D2444249B2490561828058547DD703A975
:101BC00004009396370123A0040063DB06067048E7
:101BD0005E24918B99C75C401D8E5C5899C33C4034
:101BE0001D8E5C540C50814626858297FD575A24E1
:101BF000631DF5009440F54763E8D706B70740201A
:101C00008507B3D7D700858BA5C31C4823220400C2
:101C10001CC09317370163D80700FD576314F50004
:101C20009C4091E368C84C5823A02401BDDD930774
:101C300044046384F5002685F526232A0402B5B7FB
:101C40000C500146854626850297FD572A86E311EA
:101C5000F5F89C40B5DF75476385E7005947639306
:101C6000E70423A0240191B7136707045AA47D5504
:101C700035BF83A90501E38A09F203A905008D8B0D
:101C800023A0350133093941014791E3D84918C4EC
:101C9000E35D20F11C540C50CA864E86268582973F
:101CA0006347A0005E2493E707045EA4C9B7AA991E
:101CB0003309A940F1BF9C49B9CF011122CC06CE0E
:101CC0002A8411C51C4D81E72EC61922B2459717EB
:101CD00000009387A7F9639BF5004C408397C500EC
:101CE00095C722856244F240056171BD97170000D7
:101CF0009387C7F96394F5000C44CDB7971700009C
:101D00009387C7F4E39CF5FC4C44C9BFF24062449E
:101D100001450561828001458280411122C406C6C9
:101D20002A844EA572A52320050023220500232422
:101D300005002322050623280500232A0500232C5D
:101D40000500214681451305C505EFE06FC19717D2
:101D50000000938767B15CD097170000938787B323
:101D60001CD497170000938767B75CD497170000BF
:101D70009387C7B900D01CD8B24022444101828069
:101D800097050000938565F3A9A2411126C21306A9
:101D900080069384F5FFB384C4024AC02E8922C40E
:101DA00006C6938544071D262A8401CD23200500FD
:101DB00023222501310508C4138684068145EFE0FE
:101DC0002FBA2285B24022449244024941018280C6
:101DD0001C4DADE3411106C622C49707000093874E
:101DE00067FA1CD5938781829C432324050423260C
:101DF0000504232805046314F50085471CCD2A84B7
:101E00001D2848C02285052808C422852D2048C4E5
:101E1000484001469145113708440546A545F53D22
:101E200048440946C945D53D85471CCCB2402244AB
:101E300041018280828041119387818226C284433E
:101E40004AC006C69C4C22C42A8999E32685493794
:101E5000938484048044DC40FD1763D607009C40D3
:101E6000B9CF8440C5BF0317C40039E7C1778507E0
:101E70002322040623200400232204002324040038
:101E80005CC423280400232A0400232C04002146D8
:101E900081451305C405EFE0AFAC232A0402232CCF
:101EA000040223240404232604042285B24022448D
:101EB00092440249410182801304840671BF914516
:101EC0004A85E13588C051FDB1472320F90001441E
:101ED000E9BF797122D44AD052CC56CA5AC85EC6DC
:101EE00006D626D24ECE2A8AAE8A1304850401492C
:101EF000054BFD5B09ECB25022544A8592540259BD
:101F0000F249624AD24A424BB24B45618280044454
:101F100083294400FD1963D409000040E1BFDE2499
:101F2000637BFB008397E40063877701A685528576
:101F3000829A3369A90093848406E9BF1971A6DAED
:101F4000AE848395E500A2DC86DE328463DB050087
:101F5000DE2423A0060093F7070885E793070040D7
:101F60001DA0300836C6EF00F01FB246E34205FE62
:101F70007247BD67F98F7977BA9793B717009CC2FC
:101F8000F1BF930700041CC0F6506654D6540145B7
:101F900009618280DE25011122CC06CE26CA4AC8FC
:101FA000898B2E8489CF930774041CC01CC8854775
:101FB0005CC8F2406244D2444249056182807400A8
:101FC0003000AA84A53FA2452A892685012219E965
:101FD0008317C40013F7072069FFF19B93E72700DD
:101FE0005EA4D1B7970700009387C7D99CD45E241D
:101FF00008C008C893E707085EA4A2475CC8B247B8
:1020000081CF8315E4002685EF00701811C55E248A
:10201000F19B93E717005EA45E243369F900231651
:10202000240141BFDDC183A7C5FF411122C406C6FB
:1020300026C21384C5FF63D307003E94AA84EF0031
:10204000D01B938781879C4381EF2322040023AC1C
:1020500081862244B2402685924441016F00101AC5
:10206000637EF40014403307D4006396E70098437E
:10207000DC43369718C05CC0D9BFBA87D84319C3B0
:10208000E37DE4FE94433386D700631F860010404F
:10209000B29694C33386D700E31DC7FA1043584362
:1020A000B29694C3D8C375B76375C400B1479CC0DA
:1020B0004DB71040B306C4006316D700144358430D
:1020C000B29614C058C0C0C369B78280011126CA35
:1020D00093843500F19806CE22CC4AC84EC6A1049E
:1020E000B14763F3F404B14463E2B4042A89EF0016
:1020F000D0109387818798433A8439E09387C187CA
:102100009C4391E781454A850D2F23AEA186A68584
:102110004A852527FD5963193507B1472320F90062
:102120004A85EF00B00D29A0E3D004FCB1471CC1E3
:102130000145F2406244D2444249B249056182807D
:102140001C40858F63CF0702AD4663F6F6001CC0C6
:102150003E9404C031A05C406313870223ACF18637
:102160004A85EF00B0091305B40093074400619954
:102170003307F5405DDF3A94898F1CC05DBF5CC3B7
:10218000C5B72287404095BF130435007198E3021C
:1021900085FCB305A4404A854D25E31C35FBB5BF3E
:1021A0001C46FD171CC663DA0700184E63C5E7001E
:1021B000A9476394F5006FF09F811C422E85138719
:1021C000170018C28CA38280011122CC26CA4AC8EB
:1021D0004EC652C406CE2A89AE893284B304D600D4
:1021E0007D5A63149400014501A80C204E864A854F
:1021F000453F0504E31745FFF2406244D24442499B
:10220000B249224A05618280357122CD26CB4AC966
:102210004EC706CF52C556C35AC1DEDEE2DCE6DA4F
:10222000AA89AE843289368409C51C4D99E3EFF042
:102230003FBA97170000938767A36397F40C83A4B2
:102240004900DE24A18BFDC39C48EDC39307000227
:10225000A304F1029307000302D22305F10222C670
:10226000930B5002971A0000938A4AA4054C294BFD
:102270004A841C2099C3639E770DB30C2441638D5F
:102280000C00E6864A86A6854E853D3FFD57630FC6
:10229000F51C9256E69636D21C206389071CFD5722
:1022A0001309140002C802CE3ECA02CCA3090104DD
:1022B00082D4834509001546568525271304190045
:1022C000C24751E913F7070109C713070002A30921
:1022D000E10413F7870009C71307B002A309E1045B
:1022E000834609001307A002638FE606F2474A847B
:1022F00081462546182093051400130707FD6377D0
:10230000E60AB5CA3ECE85A89717000093870798BE
:102310006395F40083A489002DB797170000938775
:10232000E792E390F4F283A4C90021BFA6854E850D
:10233000EFF0AFF501DD7D55FA406A44DA444A49D1
:10234000BA492A4A9A4A0A4BF65B665CD65C0D612A
:102350008280050439BF330555413315AC00C98F60
:102360003EC82289B9B7324793064700184336C69C
:10237000634707023ACE18209307E002631DF70473
:1023800018309307A002631BF702B24709041387B2
:1023900047009C433AC663C107023ECA2DA83307D3
:1023A000E04093E727003ACE3EC8F1B7B387670312
:1023B00085462E84BA973DBFFD57C5B7050402CAAE
:1023C000814681472546182093051400130707FD11
:1023D0006374E606F9F20C200D461715000013058C
:1023E000658D012511CD971700009387A78C1D8D52
:1023F00093070004B397A700424505045D8D2AC8E2
:102400000C201946171500001305058B130914003D
:102410002304B102F92335C197E7FFFF938787BEF5
:1024200095E74247B2471377071009CF91073EC699
:102430009257D2973ED22DBDB387670385462E842F
:10244000BA9751B79D07E19BA107D5B778009706CA
:1024500000009386A6D726860C084E8597000000BC
:10246000E7000000FD572A8AE314F5FCDE2493F709
:102470000704E39207EC1255C1B5780097060000F7
:102480009386C6D426860C084E85012AE1BF797151
:1024900056CA9C49BA8A984522D426D24ECE52CCEE
:1024A00006D64AD05AC85EC6AA892E84B284368A15
:1024B00063D3E700BA879CC00347340419C3850778
:1024C0009CC01C4093F7070281C79C4089079CC0B1
:1024D0000329040013796900631A0900130B94019E
:1024E000FD5B5C449840998F634CF9041C40834623
:1024F000340493F70702B336D000A5EB1306340477
:10250000D2854E85829AFD576303F5041C4011461F
:102510009840998B544481446397C700B384E64044
:1025200063D3040081441C4418486354F700998F16
:10253000BE94014969047D5B63982405014509A89F
:1025400085465A86D2854E85829A631E75017D55D1
:10255000B250225492540259F249624AD24A424B32
:10256000B24B456182800509ADBF3307D400130625
:102570000003A301C7040347540493871600A297DE
:102580008906A381E7049DBF85462286D2854E85B4
:10259000829AE30E65FB050945B7797122D426D2EC
:1025A0004AD04ECE06D652CC56CA5AC8B689942DB9
:1025B000930790063289AA842E8413863504638D8E
:1025C000F60263E2D706930780056385F61863ED8C
:1025D000D700638D062093073004638EF60A930AB2
:1025E00024042301D404C9A0930730066385F60AA6
:1025F00093074006E395F6FE1C40084393F6070850
:1026000093054500C5C61C410CC363D807001307DA
:10261000D002B307F040A301E404970600009386BC
:10262000266A294765A8930700076381F61663E5C4
:10263000D7029307E0066388F6189307F006E39045
:10264000F6FA0C401C4313F805081385470063078E
:10265000080608C39C4385A893075007E383F6FE4A
:10266000930780076388F61293073007E399F6F61D
:102670001C43D04181459386470014C383AA0700B9
:102680005685852601C53305554148C05C401CC8A8
:10269000A301040461A81C43930A24049386470001
:1026A0009C4314C32301F4048547D5B793F607046C
:1026B0001C410CC3B9DAC207C18781BF93F5050479
:1026C00008C3C9D99E231307F0066386E60E970652
:1026D00000009386E65E2947A30104044C400CC425
:1026E00063C5050008406D9908C099E3B28A89CD99
:1026F000B28AB3F5E702FD1AB6958C212380BA00A1
:10270000B3D5E70263FFE70AA147631EF7001C4049
:10271000858B91CB58401C4863C7E70093070003A3
:10272000A38FFAFEFD1A3306564110C84E87CA869B
:102730007000A2852685A13B7D5A631D450B7D5502
:10274000B250225492540259F249624AD24A424B40
:1027500045618280A382D504970600009386465681
:102760000C40084313F805081C411105630D0802CD
:1027700008C313F7150001C793E505020CC04147D4
:10278000A1FF0C4093F5F5FD0CC0B9B79C4193E750
:1027900007029CC193078007A302F4049706000078
:1027A0009386465375BF13F8050408C3E30308FC7A
:1027B000C207C1837DBF97060000938666502147FC
:1027C00021BFAE873DB794411C43CC4913F806089E
:1027D000138547006306080008C39C438CC339A0D7
:1027E00008C393F606049C43F5DA8EA3232804005D
:1027F000B28A2DBF14485686CA8526858299E30081
:1028000045F51C40898B8DE7B2474844E35AF5F201
:102810003E853DB785465686CA8526858299E30062
:1028200065F3050A5C443247998FE345FAFEE9BF38
:10283000014A930A94017D5BF5B7411122C42A84B1
:102840002E8523A001B606C6EFE01FF9FD576317DA
:10285000F500938701B69C4391C31CC0B24022444B
:1028600041018280411122C42E848395E50006C671
:102870007922634905007C48AA977CC8B24022446B
:10288000410182805E247D777D17F98F5EA4FDB7BC
:10289000DE25011122CC26CA4AC84EC606CE93F7C1
:1028A0000710AA842E843289B68991C78395E500E2
:1028B0008946014609225E247D777D17F98F5EA443
:1028C0008315E4006244F240CE864A86B24942490A
:1028D0002685D244056125A8411122C42E84839502
:1028E000E50006C6C928FD575A24631AF500FD778E
:1028F000FD17F98F5EA4B2402244410182808567B2
:10290000D98F5EA468C8C5BF8395E50005A84111AD
:1029100022C42A842E85B285368623A001B606C637
:10292000EFE0FFE7FD576317F500938701B69C437F
:1029300091C31CC0B240224441018280411122C493
:102940002A842E8523A001B606C6C520FD5763172D
:10295000F500938701B69C4391C31CC0B24022444A
:1029600041018280411122C42A842E85B28523A090
:1029700001B606C6C920FD576317F500938701B657
:102980009C4391C31CC0B24022444101828041114A
:1029900022C42A842E8523A001B606C65D20FD57D9
:1029A0006317F500938701B69C4391C31CC0B240E6
:1029B000224441018280411122C42A842E85B2859D
:1029C000368623A001B606C65920FD576317F500C9
:1029D000938701B69C4391C31CC0B240224441017D
:1029E000828093F5F50F2A966314C5000145828015
:1029F0001C21E38EB7FE0505C5BF82808280411190
:102A000022C42A842E85B285368623A001B606C646
:102A1000A920FD576317F500938701B69C4391C326
:102A20001CC0B2402244410182809307800523A04C
:102A3000F1B67D5582809307800523A0F1B67D55C0
:102A400082809307800523A0F1B601458280930719
:102A5000800523A0F1B67D5582809307800523A0D1
:102A6000F1B67D55828000004572726F722041641C
:102A700064726573732025780A000000000E000060
:102A8000000000080000003F000002000B000008EA
:102A90000000003F000002000000000800000040AD
:102AA00002000200FA090000EE090000F20900002D
:102AB000F6090000FA090000FE090000020A000001
:102AC000060A00002C0A0000320A0000380A000042
:102AD0003C0A0000400A0000480A00004C0A0000BE
:102AE0006A0A0000740A00007E0A0000880A0000DA
:102AF000AE0A0000920A00009C0A0000A60A00002C
:102B0000D00A0000D40A0000D80A0000DC0A000045
:102B1000E00A0000E40A0000EA0A0000F00A0000EF
:102B2000160B00001A0B00001E0B0000220B000009
:102B3000260B00002A0B0000300B0000360B0000B3
:102B4000580B0000600B0000640B0000680B0000D5
:102B50006C0B0000700B0000760B00007C0B00007B
:102B6000A2100000BC0F0000060F0000281000009B
:102B7000060F00008C0F00009E0E0000060F0000E4
:102B8000980F0000AA0F00009C1000002C0E0000FF
:102B900053797374656D436C6B3A25640D0A0000BC
:102BA0005553424420554469736B2044656D6F0D45
:102BB0000A53746F72616765204D656469756D3A7B
:102BC00020494E5445524E414C20464C41534820DA
:102BD0000D00000009022000010100C032090400BC
:102BE00000020806500007058202400000070503A6
:102BF000024000001201000200000040861A10FE90
:102C000001000102000100000E037700630068006C
:102C10002E0063006E0000001603430048003200DF
:102C20003000780055004400690073006B0000001C
:102C30001603300031003200330034003500360016
:102C400037003800390000000000000000000000DC
:102C50000000000000000000000000000000000074
:102C60000000000000000000000000000000000064
:102C70000000000000000000000000000000000054
:102C80000000000000000000000000000000000044
:102C90000000000000000000000000000000000034
:102CA0000000000000000000232D302B2000000059
:102CB000686C4C006566674546470000303132332A
:102CC0003435363738394142434445460000000028
:102CD0003031323334353637383961626364656692
:042CE00000000000F0
:102CE400008002021F000000466C617368202020EF
:102CF400555342205370656369616C204469736B5A
:102D0400322E4430010203040506070801020304BD
:102D14000506070800000000682C0000882C00004D
:102D2400482C00000000000000000000000000002B
:102D3400000000000000000000000000000000008F
:102D4400000000000000000000000000000000007F
:102D5400000000000000000000000000000000006F
:102D6400000000000000000000000000000000005F
:102D7400000000000000000040000000006CDC02C5
:102D8400444444444444444444444444FC030020F0
:102D9400340000200000003F000002000403090486
:082DA4003400002000000000D3
:00000001FF
